:100000000C9462000C948A000C948A000C948A0070
:100010000C948A000C948A000C948A000C948A0038
:100020000C948A000C948A000C948A000C948A0028
:100030000C948A000C948A000C948A000C948A0018
:100040000C9424080C948A000C9494080C946E0868
:100050000C948A000C948A000C948A000C948A00F8
:100060000C9405070C948A0000000000240027006F
:100070002A000000000023002600290000000000E4
:10008000250028002B0004040404040404040202D4
:100090000202020203030303030301020408102007
:1000A0004080010204081020010204081020000012
:1000B0000008000201000003040700000000000027
:1000C0000000C60811241FBECFEFD8E0DEBFCDBFB1
:1000D00011E0A0E0B1E0EAE6FCE102C005900D927B
:1000E000A637B107D9F722E0A6E7B1E001C01D921B
:1000F000A73FB207E1F710E0C2E6D0E004C02197C5
:10010000FE010E94F60BC136D107C9F70E940A0909
:100110000C94330E0C9400002091B001260F33276D
:10012000331F21323105ECF420911D02FC0190E0D7
:1001300080E0243069F082E00895A091B00121911F
:10014000AC0142575E4FA40FB52FB11D2C93019601
:10015000861798F38091B001680F6093B00180E03A
:10016000089581E00895089508950895E091D601D5
:100170008091D501E81730F4F0E0E952FE4F80811C
:1001800090E008958FEF9FEF08959091D6018091B0
:10019000D5012FEF3FEF981748F4E92FF0E0E9522F
:1001A000FE4F208130E09F5F9093D601C9010895F2
:1001B0008091D5019091D601891B990B0895CF921A
:1001C000DF92EF92FF920F931F93CF93DF937C0107
:1001D000CB018A0120912302222389F0EB016B01DC
:1001E000C40ED51ECC15DD0569F06991D701ED91DE
:1001F000FC910190F081E02DC7010995F3CF642FA8
:100200000E948C00C801DF91CF911F910F91FF9048
:10021000EF90DF90CF900895CF93DF931F92CDB7EB
:10022000DEB76983209123022223F9F02091460250
:10023000203258F021E030E0FC013383228390E04B
:1002400080E00F90DF91CF91089580912402E82FF4
:10025000F0E0EB5DFD4F998190838F5F80932402E6
:100260008093460281E090E0ECCF61E0CE01019600
:100270000E948C00F7CF833081F028F4813099F010
:100280008230A9F008958730A9F08830C9F0843011
:10029000B1F4809180008F7D03C0809180008F77C2
:1002A00080938000089584B58F7784BD089584B5C8
:1002B0008F7DFBCF8091B0008F778093B000089541
:1002C0008091B0008F7DF9CF1F93CF93DF93282FBC
:1002D00030E0F901E255FF4F8491F901E656FF4FF6
:1002E000D491F901EA57FF4FC491CC23A9F0162FFE
:1002F00081110E943B01EC2FF0E0EE0FFF1FE4584C
:10030000FF4FA591B4918FB7F894EC91111108C0EB
:10031000D095DE23DC938FBFDF91CF911F9108959D
:10032000DE2BF8CF10921D0281E080931C02109208
:10033000F70161E082E10E94640161E083E10E94D3
:100340006401E9EBF0E080818E7F808380818D7F86
:10035000808388E48093B80085E48093BC0008958E
:10036000CF93DF9391E090938D018823B9F0C091F2
:10037000B800D091BA008091BC008A7B8093BC0009
:1003800060E082E10E94640160E083E10E94640118
:100390000E949201D093BA00C093B800DF91CF9130
:1003A00008953FB7F8948091890190918A01A091B6
:1003B0008B01B0918C0126B5A89B05C02F3F19F089
:1003C0000196A11DB11D3FBFBA2FA92F982F8827D5
:1003D000BC01CD01620F711D811D911D42E0660FB0
:1003E000771F881F991F4A95D1F708958F929F9282
:1003F000AF92BF92CF92DF92EF92FF920F931F9333
:10040000CF93DF93D0914602D13208F0D7C0182F96
:10041000C09145020E94D1016B017C0180911D02B7
:1004200081116BC082E080931D0210931C028FEF3C
:1004300080931B0210921A02D0931902A5E2B2E037
:10044000E9EFF1E080E0D81391C01092F8018091BB
:10045000F801CC0FC82BC093F8018091F7018130CF
:1004600009F088C01092F7010E94D1016B017C0154
:100470008091F8018093BB0080911F02909120022F
:10048000A0912102B0912202892B8A2B8B2BA1F003
:100490000E94D10100911F0210912002209121029F
:1004A000309122026C197D098E099F0906171707E2
:1004B0002807390708F442C08091BC0083FDD8CFDB
:1004C00085EC8093BC000E94D1016B017C0180917E
:1004D0001D02823009F450C080911B028F3F09F445
:1004E0006FC080911B02803209F46CC080911B02A6
:1004F000803309F469C084E026C080911F02909186
:100500002002A0912102B0912202892B8A2B8B2BF1
:1005100009F484CF0E94D10180901F0290902002A4
:10052000A0902102B09022026C197D098E099F09CA
:1005300086169706A806B90608F070CF80911E02AD
:100540000E94B00185E0109224021092460210929F
:100550002302DF91CF911F910F91FF90EF90DF90D9
:10056000CF90BF90AF909F908F9008959D91919361
:100570008F5F69CF85EEA5CF80911F0290912002F9
:10058000A0912102B0912202892B8A2B8B2B09F496
:100590009ECF0E94D10100911F0210912002209154
:1005A0002102309122026C197D098E099F090617DC
:1005B00017072807390708F08ACFC0CF81E0C3CFDB
:1005C00080E0C1CF82E0BFCF83E0BDCF1F93CF9348
:1005D000DF93162FC0EFD2E0A981BA81988121E084
:1005E0002093230290934502109224021092460217
:1005F000ED91FC9111970190F081E02D682FCD01D4
:10060000099589819A81DC01ED91FC910190F0813D
:10061000E02D612F099581E0DF91CF911F910C941E
:10062000F6018F929F92AF92BF92CF92DF92EF929C
:10063000FF926B017C010E94D1014B015C01C1144E
:10064000D104E104F104B9F00E94D10168197909DB
:100650008A099B09683E73408105910580F321E07A
:10066000C21AD108E108F10888EE880E83E0981ECE
:10067000A11CB11CE4CFFF90EF90DF90CF90BF9012
:10068000AF909F908F900895AF92BF92CF92DF92DC
:10069000EF92FF920F931F93CF93DF936C017B0137
:1006A0008B01040F151FEB015E01AE18BF08C017C8
:1006B000D10759F06991D601ED91FC910190F0813B
:1006C000E02DC6010995892B79F7C501DF91CF91FE
:1006D0001F910F91FF90EF90DF90CF90BF90AF9060
:1006E000089590E080E00895FC01538D448D252FFE
:1006F00030E0842F90E0821B930B541710F0CF96BC
:10070000089501970895FC01918D828D981761F0ED
:10071000A28DAE0FBF2FB11D5D968C91928D9F5F04
:100720009F73928F90E008958FEF9FEF0895FC01E3
:10073000918D828D981731F0828DE80FF11D858D96
:1007400090E008958FEF9FEF0895FC01918D228D29
:10075000892F90E0805C9F4F821B91098F739927AE
:10076000089587E492E00E94A50321E0892B09F413
:1007700020E0822F089580E090E0892B29F00E94EC
:10078000B10381110C9400000895FC01A48DA80F01
:10079000B92FB11DA35ABF4F2C91848D90E00196C3
:1007A0008F739927848FA689B7892C93A089B189E3
:1007B0008C91837080648C93938D848D981306C084
:1007C0000288F389E02D80818F7D80830895EF92E8
:1007D000FF920F931F93CF93DF93EC0181E0888FFB
:1007E0009B8D8C8D98131AC0E889F989808185FFCB
:1007F00015C09FB7F894EE89FF896083E889F9896D
:1008000080818370806480839FBF81E090E0DF916E
:10081000CF911F910F91FF90EF900895F62E0B8DC1
:1008200010E00F5F1F4F0F731127E02E8C8D8E117C
:100830000CC00FB607FCFACFE889F989808185FFE3
:10084000F5CFCE010E94C503F1CFEB8DEC0FFD2F4C
:10085000F11DE35AFF4FF0829FB7F8940B8FEA899E
:10086000FB8980818062CFCFCF93DF93EC01888DAD
:100870008823B9F0AA89BB89E889F9898C9185FD1B
:1008800003C0808186FD0DC00FB607FCF7CF8C91A9
:1008900085FFF2CF808185FFEDCFCE010E94C50399
:1008A000E9CFDF91CF910895DC01ED91FC910190AA
:1008B000F081E02D09940F931F93CF93DF938B0169
:1008C000C0EFD2E0A981BA81988121E02093230270
:1008D00090934502109224021092460294E0899F60
:1008E000B00111246A5F7F4FED91FC911197019047
:1008F000F081E02DCD01099570E060E089819A8159
:100900000E94540470E060E089819A810E9454043E
:10091000B80189819A810E945404612F70E0898115
:100920009A810E94540481E0DF91CF911F910F9131
:100930000C94F601FC0101900020E9F73197AF011A
:10094000481B590BBC0187E492E00C944403CF93FD
:10095000DF930E949A04EC0188E291E00E949A04DD
:100960008C0F9D1FDF91CF9108958BE291E00E9443
:10097000A704E6E7F1E01182108213821282158249
:1009800014821782168211861086138612860895A5
:100990008F929F92AF92BF92CF92DF92EF92FF928F
:1009A0000F931F93CF936B017C0120E030E040E870
:1009B0005FE30E94690C87FDDEC020E030EC4AE571
:1009C00055E4C701B6010E94C10D18163CF4C12CB4
:1009D00030ECD32E3AE5E32E35E4F32E6091F302AA
:1009E0007091F4028091F5029091F6020E940F0D31
:1009F0004B015C0120E030E040E855E4C701B6015E
:100A00000E94C60D9B01AC01C501B4010E946E0C91
:100A100020E030E040E05FE30E94FD0B20E030E0AA
:100A200040E85FE30E94FC0B6B017C0120E030E0BA
:100A300040E450E40E94690C87FDA4C020E030E04F
:100A40004FE753E4C701B6010E94C10D181634F4F4
:100A5000C12CD12C9FE7E92E93E4F92EC701B601F2
:100A60000E94E00CF62E8091F1029091F20220910A
:100A7000F00231E0309323022093450210922402C9
:100A800010924602DC01ED91FC910190F081E02D85
:100A900060E0099581E00E94F601C091F0020E9499
:100AA000D1014B015C0180911D02811171C081E077
:100AB00080931D0280931C029FEF90931B02109263
:100AC0001A02109219028093F8018091F801CC0F5C
:100AD000C82BC093F8018091F701813009F0B2C0B2
:100AE0001092F7010E94D1014B015C018091F80145
:100AF0008093BB0080911F0290912002A09121025F
:100B0000B0912202892B8A2B8B2BA1F00E94D1015C
:100B100000911F02109120022091210230912202A7
:100B2000681979098A099B090617170728073907E1
:100B300008F44FC08091BC0083FDD8CF85EC809332
:100B4000BC000E94D1014B015C0180911D028130EB
:100B500009F47AC080911A02811198C080911A021A
:100B6000E9EFF1E0A7EDB1E090E09817B9F121913C
:100B70002D939F5FFACFC12CD12C20E8E22E2FE3DA
:100B8000F22E2CCFC12CD12C80E4E82EFE2C66CF87
:100B900080911F0290912002A0912102B091220227
:100BA000892B8A2B8B2B09F47ECF0E94D1010091D7
:100BB0001F02109120022091210230912202681917
:100BC00079098A099B09061717072807390708F0CA
:100BD0006ACF80911E020E94B00180E01092D6017F
:100BE0008093D5018091F1029091F202DC01ED91A8
:100BF000FC910284F385E02D0995C82F682F6F764C
:100C0000606180E00E94E6026F2D8EEF0E94E60296
:100C10006C2F80E00E94E60265E070E080E090E0EA
:100C20000E9411036C2F606A80E0CF911F910F9199
:100C3000FF90EF90DF90CF90BF90AF909F908F90FC
:100C40000C94E60285EE7BCF80911F0290912002EA
:100C5000A0912102B0912202892B8A2B8B2B09F4BF
:100C600074CF0E94D10100911F02109120022091A7
:100C7000210230912202681979098A099B09061715
:100C800017072807390708F060CFA3CF81E068CFA6
:100C90008F929F92AF92BF92CF92DF92EF92FF928C
:100CA0000F931F93CF93DF93CDB7DEB7A1970FB606
:100CB000F894DEBF0FBECDBF6C01990FEE08FF08A0
:100CC000F7FE47C06DE287E492E00E94E7038C01E3
:100CD00022273327A9012C193D094E095F0919A2C2
:100CE000CE0181967C019AE0892E912CA12CB12C09
:100CF000CA01B901A50194010E94C50B605DF7010D
:100D000062937F01211531054105510589F790E076
:100D100080E0309719F0CF010E949A04080F191F44
:100D200088E291E00E949A04800F911FA1960FB66D
:100D3000F894DEBF0FBECDBFDF91CF911F910F9111
:100D4000FF90EF90DF90CF90BF90AF909F908F90EB
:100D50000895A701960119A28E010F5D1F4F8AE029
:100D6000C82ED12CE12CF12CCA01B901A7019601A2
:100D70000E94C50B605DF80162938F01211531055A
:100D80004105510589F7309729F0CF010E949A0457
:100D90008C01C6CF10E000E0C3CF85ED8093BC008E
:100DA00080911F0290912002A0912102B091220215
:100DB0000796A11DB11D23E0B695A7959795879538
:100DC0002A95D1F72091BC0024FD03C010921D028A
:100DD000089540911F02509120026091210270916C
:100DE0002202452B462B472B69F30097A105B1053D
:100DF00041F025E32A95F1F700000197A109B10917
:100E0000E1CF80911E020C94B0011F920F920FB699
:100E10000F9211242F933F934F935F936F937F9380
:100E20008F939F93AF93BF93EF93FF938091B900FC
:100E3000887F803609F44AC0F0F5883209F4A7C0EB
:100E400018F5803109F49BC0B8F4882309F4F9C07F
:100E5000883009F494C0FF91EF91BF91AF919F91B9
:100E60008F917F916F915F914F913F912F910F9053
:100E70000FBE0F901F901895883109F488C08032FA
:100E800051F780931B0214C0803409F49DC040F4D4
:100E90008033B9F38833F9F680931B0285ECB0C038
:100EA000803509F485C0883509F496C0883499F6F0
:100EB0000E94CD06D0CF883909F48CC038F5883728
:100EC00029F050F4883611F0803729F683E08093BA
:100ED0001D021092D40157C0883809F47BC08039B4
:100EE00019F0803809F0B7CF8091D401803208F032
:100EF00071C0E091D40181E08E0F8093D401809184
:100F0000BB00F0E0EC54FE4F80833DC0803B39F0E5
:100F1000E0F4803A09F479C0883A09F09CCF84E083
:100F200080931D021092B1011092B001E091AE01C8
:100F3000F091AF0109958091B00181110FC081E05E
:100F40008093B00110928E0109C0803C09F4A6CFB5
:100F5000883C09F4A3CF883B09F07DCFE091B10133
:100F600081E08E0F8093B101F0E0E257FE4F808167
:100F70008093BB009091B1018091B00129C0809114
:100F8000F8018093BB0085EC8093BC0064CF909106
:100F90001A0280911902981758F5E0911A0281E01F
:100FA0008E0F80931A02F0E0E750FE4F8081E9CF68
:100FB000E0911A0281E08E0F80931A028091BB00AB
:100FC000F0E0E750FE4F808390911A028091190261
:100FD0009817C8F285E8D8CFE0911A0281E08E0F09
:100FE00080931A028091BB00F0E0E750FE4F8083AF
:100FF00080911C0281115CCF81E08093F70184EA2B
:101000008093BC0010921D0226CF85EC8093BC001B
:1010100010921D028091D401803230F4E091D4010D
:10102000F0E0EC54FE4F10826091D40170E0E0914A
:10103000B201F091B30184EB91E009951092D401D3
:101040000ACF10921B0234CF1F920F920FB60F924D
:1010500011242F933F938F939F93AF93BF938091CE
:10106000850190918601A0918701B091880130910E
:10107000840123E0230F2D3758F50196A11DB11DE2
:10108000209384018093850190938601A09387012A
:10109000B09388018091890190918A01A0918B0180
:1010A000B0918C010196A11DB11D8093890190938F
:1010B0008A01A0938B01B0938C01BF91AF919F9156
:1010C0008F913F912F910F900FBE0F901F90189509
:1010D00026E8230F0296A11DB11DD2CF1F920F92B9
:1010E0000FB60F9211242F933F934F935F936F93FB
:1010F0007F938F939F93AF93BF93EF93FF9387E477
:1011000092E00E94C503FF91EF91BF91AF919F9133
:101110008F917F916F915F914F913F912F910F90A0
:101120000FBE0F901F9018951F920F920FB60F923F
:1011300011242F938F939F93EF93FF93E091570286
:10114000F09158028081E0915D02F0915E0282FD93
:101150001BC09081809160028F5F8F73209161022C
:10116000821741F0E0916002F0E0E95BFD4F958F5E
:1011700080936002FF91EF919F918F912F910F903B
:101180000FBE0F901F9018958081F4CFA4EEB2E0AF
:1011900013961C921E92129748EE53E060E070E0A6
:1011A00014964D935D936D937C93179788E091E02F
:1011B00011969C938E93E7E4F2E0138212824483AB
:1011C0005583668377838AE191E09183808385EC00
:1011D00090E09587848784EC90E09787868780EC01
:1011E00090E0918B808B81EC90E0938B828B82ECF2
:1011F00090E0958B848B86EC90E0978B868B118E9C
:10120000128E138E148EE0EFF2E080E48083B283BE
:10121000A1830895789484B5826084BD84B581608B
:1012200084BD85B5826085BD85B5816085BD8091B1
:101230006E00816080936E00109281008091810029
:101240008260809381008091810081608093810021
:10125000809180008160809380008091B1008460E3
:101260008093B1008091B00081608093B000809144
:101270007A00846080937A0080917A008260809303
:101280007A0080917A00816080937A0080917A0060
:10129000806880937A001092C100E7EAF0E0249120
:1012A000E3E9F0E08491882399F090E0880F991F9A
:1012B000FC01E859FF4FA591B491FC01E458FF4FA0
:1012C000859194918FB7F894EC91E22BEC938FBFBA
:1012D000E2EAF0E02491EEE8F0E084918823C1F0A6
:1012E00090E0880F991FFC01E859FF4FA591B49138
:1012F000FC01E458FF4FC591D4913FB7F8949C91FD
:10130000822F809598239C939881892388833FBF5F
:1013100080E480937C0080917A00806480937A00DE
:1013200080917A0086FDFCCF8091780060917900F1
:10133000762F682F072E000C880B990B611571050D
:101340008105910511F00E948A0B1092D60110922E
:10135000D50110922402109246020E94920183EB62
:1013600090E09093AF018093AE0184EB90E0909376
:10137000B3018093B20160E880E00E94E6026AE077
:1013800070E080E090E00E94110360E070E08AE786
:1013900094E40E94C80480E498E7ADE7B1E080934C
:1013A000F3029093F402A093F502B093F60260E08A
:1013B00070E080E792E40E94C80464E670E080E098
:1013C00090E00E941103E0915702F091580282E0F0
:1013D0008083E0915302F09154021082E091550213
:1013E000F09156028FEC808310925F02E0915B02D5
:1013F000F0915C0286E08083E0915902F0915A02FC
:10140000808180618083E0915902F0915A0280814D
:1014100088608083E0915902F0915A02808180684F
:101420008083E0915902F0915A0280818F7D808300
:1014300081E391E00E94A70426E0822E912CA12C4A
:10144000B12C34E1C32ED12CE12CF12CE6EBF0E0F1
:101450008491E2EAF0E0D491EEE8F0E0C491CC238C
:1014600009F4A6C081110E943B01EC2FF0E0EE0FC1
:10147000FF1FEE58FF4FA591B4918C91D82309F42A
:1014800097C00E943B0B23E030E040E050E00E9418
:10149000930B2B013C01F2E04F0E511C611C711C9F
:1014A00088E291E00E949A0487E391E00E949A0406
:1014B000C2010E9448060E94B50427E0249D100145
:1014C000259D300C112410E000E02016310609F4AF
:1014D00079C0809182019091830106970CF061C0E0
:1014E0000E943B0BA50194010E94930B762EEB0109
:1014F000FB01EE0FFF1FEA58FE4F80819181892B7F
:1015000079F781E090E0918380838BE491E00E9401
:101510009A04CE010E944806809182019091830135
:10152000019690938301809382012196C9F2C4E6CB
:10153000D0E0BE01872D0E945B0461E070E080E096
:1015400090E00E9411032196CC32E1E0DE0789F79A
:101550000E943B0BA70196010E94930B625E7F4F96
:101560008F4F9F4F0E941103BE01872D0E945B0485
:1015700061E070E080E090E00E9411032197C436A2
:10158000D10591F70E943B0BA70196010E94930B96
:10159000625E7F4F8F4F9F4F0E9411030F5F1F4F5F
:1015A00094CF0E94B5041092830110928201F6CF6D
:1015B00083E691E00E94A70468EE73E080E090E08B
:1015C0000E94110380E090E0892B09F43FCF0E9434
:1015D000B103882309F43ACF0E94000037CF8F92DD
:1015E0009F92AF92BF92CF92DF92EF92FF92CF93F2
:1015F000DF93EC01688179818A819B816115710596
:101600008105910521F464E279ED8BE597E02DE108
:1016100033EF41E050E00E94930B49015A019B01D6
:10162000AC01A7EAB1E40E94B20B6B017C01ACEE05
:10163000B4EFA50194010E94C00BC60ED71EE81E90
:10164000F91EF7FE06C081E0C81AD108E10880E85B
:10165000F80AC882D982EA82FB82C701B6019F7765
:10166000DF91CF91FF90EF90DF90CF90BF90AF9040
:101670009F908F9008958F929F92AF92BF92CF923A
:10168000DF92EF92FF9260910001709101018091D1
:10169000020190910301611571058105910521F405
:1016A00064E279ED8BE597E02DE133EF41E050E026
:1016B0000E94930B49015A019B01AC01A7EAB1E4D6
:1016C0000E94B20B6B017C01ACEEB4EFA50194015A
:1016D0000E94C00BC60ED71EE81EF91EF7FE06C0FC
:1016E00081E0C81AD108E10880E8F80AC092000138
:1016F000D0920101E0920201F0920301C701B6010C
:101700009F77FF90EF90DF90CF90BF90AF909F902A
:101710008F900895609300017093010180930201FE
:10172000909303010895052E97FB1EF400940E94E8
:10173000AA0B57FD07D00E94C50B07FC03D04EF43F
:101740000C94AA0B50954095309521953F4F4F4FE3
:101750005F4F089590958095709561957F4F8F4F5D
:101760009F4F08950E94E70BA59F900DB49F900D89
:10177000A49F800D911D11240895B7FF0C94B20B06
:101780000E94B20B821B930B0895A1E21A2EAA1B92
:10179000BB1BFD010DC0AA1FBB1FEE1FFF1FA21721
:1017A000B307E407F50720F0A21BB30BE40BF50B1E
:1017B000661F771F881F991F1A9469F760957095A7
:1017C000809590959B01AC01BD01CF010895A29F2A
:1017D000B001B39FC001A39F700D811D1124911D05
:1017E000B29F700D811D1124911D0895EE0FFF1FF2
:1017F0000590F491E02D09945058BB27AA270E9428
:10180000140C0C94870D0E94790D38F00E94800D05
:1018100020F039F49F3F19F426F40C94760D0EF461
:10182000E095E7FB0C94700DE92F0E94980D58F39A
:10183000BA17620773078407950720F079F4A6F5B5
:101840000C94BA0D0EF4E0950B2EBA2FA02D0B01BF
:10185000B90190010C01CA01A0011124FF27591BF5
:1018600099F0593F50F4503E68F11A16F040A22FFB
:10187000232F342F4427585FF3CF4695379527956C
:10188000A795F0405395C9F77EF41F16BA0B620B6B
:10189000730B840BBAF09150A1F0FF0FBB1F661FB2
:1018A000771F881FC2F70EC0BA0F621F731F841FF5
:1018B00048F4879577956795B795F7959E3F08F01B
:1018C000B0CF9395880F08F09927EE0F97958795DD
:1018D00008950E944C0D08F481E008950E94820C46
:1018E0000C94870D0E94800D58F00E94790D40F0F5
:1018F00029F45F3F29F00C94700D51110C94BB0D2D
:101900000C94760D0E94980D68F39923B1F355233A
:1019100091F3951B550BBB27AA2762177307840702
:1019200038F09F5F5F4F220F331F441FAA1FA9F398
:1019300035D00E2E3AF0E0E832D091505040E69586
:10194000001CCAF72BD0FE2F29D0660F771F881FE7
:10195000BB1F261737074807AB07B0E809F0BB0BDA
:10196000802DBF01FF2793585F4F3AF09E3F5105EE
:1019700078F00C94700D0C94BB0D5F3FE4F3983E2F
:10198000D4F3869577956795B795F7959F5FC9F7D7
:10199000880F911D9695879597F90895E1E0660F58
:1019A000771F881FBB1F621773078407BA0720F0D1
:1019B000621B730B840BBA0BEE1F88F7E09508953A
:1019C0000E94A00D88F09F5798F0B92F9927B75122
:1019D000B0F0E1F0660F771F881F991F1AF0BA95D3
:1019E000C9F714C0B13091F00E94BA0DB1E008956A
:1019F0000C94BA0D672F782F8827B85F39F0B93F5C
:101A0000CCF3869577956795B395D9F73EF4909585
:101A10008095709561957F4F8F4F9F4F0895E89403
:101A200009C097FB3EF490958095709561957F4F26
:101A30008F4F9F4F9923A9F0F92F96E9BB279395D4
:101A4000F695879577956795B795F111F8CFFAF4E4
:101A5000BB0F11F460FF1BC06F5F7F4F8F4F9F4F15
:101A600016C0882311F096E911C0772321F09EE873
:101A7000872F762F05C0662371F096E8862F70E0D9
:101A800060E02AF09A95660F771F881FDAF7880FB3
:101A90009695879597F90895990F0008550FAA0B09
:101AA000E0E8FEEF16161706E807F907C0F0121671
:101AB0001306E407F50798F0621B730B840B950B74
:101AC00039F40A2661F0232B242B252B21F40895C9
:101AD0000A2609F4A140A6958FEF811D811D089566
:101AE00097F99F6780E870E060E008959FEF80ECD1
:101AF000089500240A941616170618060906089574
:101B000000240A9412161306140605060895092ED9
:101B10000394000C11F4882352F0BB0F40F4BF2B48
:101B200011F460FF04C06F5F7F4F8F4F9F4F089588
:101B300057FD9058440F551F59F05F3F71F047957E
:101B4000880F97FB991F61F09F3F79F08795089563
:101B5000121613061406551FF2CF4695F1DF08C082
:101B6000161617061806991FF1CF8695710561059F
:101B700008940895E894BB2766277727CB0197F947
:101B800008950E944C0D08F48FEF08950E94D90D1E
:101B90000C94870D0E94790D38F00E94800D20F082
:101BA000952311F00C94700D0C94760D11240C9467
:101BB000BB0D0E94980D70F3959FC1F3950F50E0F7
:101BC000551F629FF001729FBB27F00DB11D639FEF
:101BD000AA27F00DB11DAA1F649F6627B00DA11D95
:101BE000661F829F2227B00DA11D621F739FB00D3B
:101BF000A11D621F839FA00D611D221F749F3327AB
:101C0000A00D611D231F849F600D211D822F762F43
:101C10006A2F11249F5750409AF0F1F088234AF020
:101C2000EE0FFF1FBB1F661F771F881F915050408C
:101C3000A9F79E3F510580F00C94700D0C94BB0DDC
:101C40005F3FE4F3983ED4F3869577956795B79513
:101C5000F795E7959F5FC1F7FE2B880F911D96952D
:0A1C6000879597F90895F894FFCFD7
:101C6A0001000000000000000C01DF007103B50054
:101C7A00D800C500B60000000000E703440374035F
:101C8A003404A503830397030D0A005245534554B0
:101C9A0000524541445900486F206573747261745B
:101CAA00746F206369636C69202300486F20657331
:101CBA0074726174746F20696C206E756D65726FD1
:101CCA003A20000A6E6F6E206327C3A8206E6573E0
:061CDA0073756E6F00003F
:00000001FF
